{
  "_format": "hh-sol-artifact-1",
  "contractName": "WarpAdsProtocol",
  "sourceName": "contracts/WarpAds.sol",
  "abi": [
    {
      "inputs": [
        {
          "internalType": "address",
          "name": "_treasury",
          "type": "address"
        },
        {
          "internalType": "address",
          "name": "_warpToken",
          "type": "address"
        },
        {
          "internalType": "address",
          "name": "_adSpace",
          "type": "address"
        },
        {
          "internalType": "address",
          "name": "_campaign",
          "type": "address"
        },
        {
          "internalType": "address",
          "name": "_validator",
          "type": "address"
        }
      ],
      "stateMutability": "nonpayable",
      "type": "constructor"
    },
    {
      "anonymous": false,
      "inputs": [
        {
          "indexed": true,
          "internalType": "uint256",
          "name": "adSpaceId",
          "type": "uint256"
        },
        {
          "indexed": true,
          "internalType": "address",
          "name": "owner",
          "type": "address"
        },
        {
          "indexed": false,
          "internalType": "uint256",
          "name": "stake",
          "type": "uint256"
        },
        {
          "indexed": false,
          "internalType": "string",
          "name": "metadataURI",
          "type": "string"
        }
      ],
      "name": "AdSpaceRegistered",
      "type": "event"
    },
    {
      "anonymous": false,
      "inputs": [
        {
          "indexed": true,
          "internalType": "uint256",
          "name": "campaignId",
          "type": "uint256"
        },
        {
          "indexed": true,
          "internalType": "address",
          "name": "owner",
          "type": "address"
        },
        {
          "indexed": false,
          "internalType": "uint256",
          "name": "expiry",
          "type": "uint256"
        },
        {
          "indexed": false,
          "internalType": "uint256",
          "name": "priorityStake",
          "type": "uint256"
        },
        {
          "indexed": false,
          "internalType": "string",
          "name": "adContent",
          "type": "string"
        }
      ],
      "name": "CampaignRegistered",
      "type": "event"
    },
    {
      "anonymous": false,
      "inputs": [
        {
          "indexed": true,
          "internalType": "uint256",
          "name": "campaignId",
          "type": "uint256"
        }
      ],
      "name": "CampaignTerminated",
      "type": "event"
    },
    {
      "anonymous": false,
      "inputs": [
        {
          "indexed": true,
          "internalType": "address",
          "name": "triggeredBy",
          "type": "address"
        }
      ],
      "name": "EmergencyShutdown",
      "type": "event"
    },
    {
      "anonymous": false,
      "inputs": [
        {
          "indexed": true,
          "internalType": "address",
          "name": "previousOwner",
          "type": "address"
        },
        {
          "indexed": true,
          "internalType": "address",
          "name": "newOwner",
          "type": "address"
        }
      ],
      "name": "OwnershipTransferred",
      "type": "event"
    },
    {
      "anonymous": false,
      "inputs": [
        {
          "indexed": false,
          "internalType": "address",
          "name": "account",
          "type": "address"
        }
      ],
      "name": "Paused",
      "type": "event"
    },
    {
      "anonymous": false,
      "inputs": [
        {
          "indexed": true,
          "internalType": "uint256",
          "name": "adSpaceId",
          "type": "uint256"
        },
        {
          "indexed": false,
          "internalType": "uint256",
          "name": "amount",
          "type": "uint256"
        },
        {
          "indexed": false,
          "internalType": "string",
          "name": "reason",
          "type": "string"
        }
      ],
      "name": "StakeSlashed",
      "type": "event"
    },
    {
      "anonymous": false,
      "inputs": [
        {
          "indexed": true,
          "internalType": "uint256",
          "name": "adSpaceId",
          "type": "uint256"
        },
        {
          "indexed": true,
          "internalType": "address",
          "name": "owner",
          "type": "address"
        },
        {
          "indexed": false,
          "internalType": "uint256",
          "name": "amount",
          "type": "uint256"
        }
      ],
      "name": "StakeWithdrawn",
      "type": "event"
    },
    {
      "anonymous": false,
      "inputs": [
        {
          "indexed": false,
          "internalType": "address",
          "name": "account",
          "type": "address"
        }
      ],
      "name": "Unpaused",
      "type": "event"
    },
    {
      "anonymous": false,
      "inputs": [
        {
          "indexed": true,
          "internalType": "address",
          "name": "oldValidator",
          "type": "address"
        },
        {
          "indexed": true,
          "internalType": "address",
          "name": "newValidator",
          "type": "address"
        }
      ],
      "name": "ValidatorUpdated",
      "type": "event"
    },
    {
      "inputs": [],
      "name": "BASIS_POINTS",
      "outputs": [
        {
          "internalType": "uint256",
          "name": "",
          "type": "uint256"
        }
      ],
      "stateMutability": "view",
      "type": "function"
    },
    {
      "inputs": [],
      "name": "MAX_CAMPAIGN_DURATION",
      "outputs": [
        {
          "internalType": "uint256",
          "name": "",
          "type": "uint256"
        }
      ],
      "stateMutability": "view",
      "type": "function"
    },
    {
      "inputs": [],
      "name": "MIN_CAMPAIGN_DURATION",
      "outputs": [
        {
          "internalType": "uint256",
          "name": "",
          "type": "uint256"
        }
      ],
      "stateMutability": "view",
      "type": "function"
    },
    {
      "inputs": [],
      "name": "MIN_PRIORITY_STAKE",
      "outputs": [
        {
          "internalType": "uint256",
          "name": "",
          "type": "uint256"
        }
      ],
      "stateMutability": "view",
      "type": "function"
    },
    {
      "inputs": [],
      "name": "MIN_STAKE",
      "outputs": [
        {
          "internalType": "uint256",
          "name": "",
          "type": "uint256"
        }
      ],
      "stateMutability": "view",
      "type": "function"
    },
    {
      "inputs": [],
      "name": "PLATFORM_FEE_PERCENTAGE",
      "outputs": [
        {
          "internalType": "uint256",
          "name": "",
          "type": "uint256"
        }
      ],
      "stateMutability": "view",
      "type": "function"
    },
    {
      "inputs": [],
      "name": "adSpace",
      "outputs": [
        {
          "internalType": "contract AdSpaceNFT",
          "name": "",
          "type": "address"
        }
      ],
      "stateMutability": "view",
      "type": "function"
    },
    {
      "inputs": [
        {
          "internalType": "uint256",
          "name": "",
          "type": "uint256"
        }
      ],
      "name": "adSpaces",
      "outputs": [
        {
          "internalType": "address",
          "name": "owner",
          "type": "address"
        },
        {
          "internalType": "uint256",
          "name": "stakedWarp",
          "type": "uint256"
        },
        {
          "internalType": "string",
          "name": "metadataURI",
          "type": "string"
        },
        {
          "internalType": "uint256",
          "name": "rewardsAccumulated",
          "type": "uint256"
        },
        {
          "internalType": "bool",
          "name": "isActive",
          "type": "bool"
        }
      ],
      "stateMutability": "view",
      "type": "function"
    },
    {
      "inputs": [],
      "name": "campaign",
      "outputs": [
        {
          "internalType": "contract CampaignNFT",
          "name": "",
          "type": "address"
        }
      ],
      "stateMutability": "view",
      "type": "function"
    },
    {
      "inputs": [
        {
          "internalType": "uint256",
          "name": "",
          "type": "uint256"
        }
      ],
      "name": "campaigns",
      "outputs": [
        {
          "internalType": "address",
          "name": "owner",
          "type": "address"
        },
        {
          "internalType": "uint256",
          "name": "expiry",
          "type": "uint256"
        },
        {
          "internalType": "uint256",
          "name": "priorityStake",
          "type": "uint256"
        },
        {
          "internalType": "string",
          "name": "adContent",
          "type": "string"
        },
        {
          "internalType": "bool",
          "name": "isActive",
          "type": "bool"
        }
      ],
      "stateMutability": "view",
      "type": "function"
    },
    {
      "inputs": [
        {
          "internalType": "uint256",
          "name": "adSpaceId",
          "type": "uint256"
        }
      ],
      "name": "claimRewards",
      "outputs": [],
      "stateMutability": "nonpayable",
      "type": "function"
    },
    {
      "inputs": [
        {
          "internalType": "uint256",
          "name": "campaignId",
          "type": "uint256"
        }
      ],
      "name": "isCampaignExpired",
      "outputs": [
        {
          "internalType": "bool",
          "name": "",
          "type": "bool"
        }
      ],
      "stateMutability": "view",
      "type": "function"
    },
    {
      "inputs": [],
      "name": "owner",
      "outputs": [
        {
          "internalType": "address",
          "name": "",
          "type": "address"
        }
      ],
      "stateMutability": "view",
      "type": "function"
    },
    {
      "inputs": [],
      "name": "pause",
      "outputs": [],
      "stateMutability": "nonpayable",
      "type": "function"
    },
    {
      "inputs": [],
      "name": "paused",
      "outputs": [
        {
          "internalType": "bool",
          "name": "",
          "type": "bool"
        }
      ],
      "stateMutability": "view",
      "type": "function"
    },
    {
      "inputs": [
        {
          "internalType": "string",
          "name": "metadataURI",
          "type": "string"
        },
        {
          "internalType": "uint256",
          "name": "warpStake",
          "type": "uint256"
        }
      ],
      "name": "registerAgent",
      "outputs": [],
      "stateMutability": "nonpayable",
      "type": "function"
    },
    {
      "inputs": [
        {
          "internalType": "uint256",
          "name": "durationDays",
          "type": "uint256"
        },
        {
          "internalType": "uint256",
          "name": "priorityStake",
          "type": "uint256"
        },
        {
          "internalType": "string",
          "name": "adContent",
          "type": "string"
        }
      ],
      "name": "registerCampaign",
      "outputs": [],
      "stateMutability": "nonpayable",
      "type": "function"
    },
    {
      "inputs": [],
      "name": "renounceOwnership",
      "outputs": [],
      "stateMutability": "nonpayable",
      "type": "function"
    },
    {
      "inputs": [
        {
          "internalType": "uint256[]",
          "name": "adSpaceIds",
          "type": "uint256[]"
        },
        {
          "internalType": "uint256[]",
          "name": "amounts",
          "type": "uint256[]"
        }
      ],
      "name": "setBatchClaimableRewards",
      "outputs": [],
      "stateMutability": "nonpayable",
      "type": "function"
    },
    {
      "inputs": [
        {
          "internalType": "uint256",
          "name": "adSpaceId",
          "type": "uint256"
        },
        {
          "internalType": "uint256",
          "name": "amount",
          "type": "uint256"
        }
      ],
      "name": "setClaimableRewards",
      "outputs": [],
      "stateMutability": "nonpayable",
      "type": "function"
    },
    {
      "inputs": [
        {
          "internalType": "address",
          "name": "newValidator",
          "type": "address"
        }
      ],
      "name": "setValidator",
      "outputs": [],
      "stateMutability": "nonpayable",
      "type": "function"
    },
    {
      "inputs": [
        {
          "internalType": "uint256",
          "name": "adSpaceId",
          "type": "uint256"
        },
        {
          "internalType": "uint256",
          "name": "amount",
          "type": "uint256"
        },
        {
          "internalType": "string",
          "name": "reason",
          "type": "string"
        }
      ],
      "name": "slashStake",
      "outputs": [],
      "stateMutability": "nonpayable",
      "type": "function"
    },
    {
      "inputs": [
        {
          "internalType": "uint256",
          "name": "campaignId",
          "type": "uint256"
        }
      ],
      "name": "terminateCampaign",
      "outputs": [],
      "stateMutability": "nonpayable",
      "type": "function"
    },
    {
      "inputs": [
        {
          "internalType": "address",
          "name": "newOwner",
          "type": "address"
        }
      ],
      "name": "transferOwnership",
      "outputs": [],
      "stateMutability": "nonpayable",
      "type": "function"
    },
    {
      "inputs": [],
      "name": "treasury",
      "outputs": [
        {
          "internalType": "address",
          "name": "",
          "type": "address"
        }
      ],
      "stateMutability": "view",
      "type": "function"
    },
    {
      "inputs": [],
      "name": "unpause",
      "outputs": [],
      "stateMutability": "nonpayable",
      "type": "function"
    },
    {
      "inputs": [],
      "name": "validator",
      "outputs": [
        {
          "internalType": "address",
          "name": "",
          "type": "address"
        }
      ],
      "stateMutability": "view",
      "type": "function"
    },
    {
      "inputs": [],
      "name": "warpToken",
      "outputs": [
        {
          "internalType": "contract IERC20",
          "name": "",
          "type": "address"
        }
      ],
      "stateMutability": "view",
      "type": "function"
    },
    {
      "inputs": [],
      "name": "withdrawFees",
      "outputs": [],
      "stateMutability": "nonpayable",
      "type": "function"
    },
    {
      "inputs": [
        {
          "internalType": "uint256",
          "name": "adSpaceId",
          "type": "uint256"
        },
        {
          "internalType": "uint256",
          "name": "amount",
          "type": "uint256"
        }
      ],
      "name": "withdrawStake",
      "outputs": [],
      "stateMutability": "nonpayable",
      "type": "function"
    }
  ],
  "bytecode": "0x60c060405234801562000010575f80fd5b506040516200243338038062002433833981016040819052620000339162000309565b60015f5562000042336200029c565b6001805460ff60a01b191690556001600160a01b038516620000ab5760405162461bcd60e51b815260206004820152601860248201527f496e76616c69642074726561737572792061646472657373000000000000000060448201526064015b60405180910390fd5b6001600160a01b0384166200010f5760405162461bcd60e51b815260206004820152602360248201527f496e76616c6964205741525020546f6b656e20436f6e7472616374206164647260448201526265737360e81b6064820152608401620000a2565b6001600160a01b038316620001675760405162461bcd60e51b815260206004820181905260248201527f496e76616c6964204164537061636520436f6e747261637420616464726573736044820152606401620000a2565b6001600160a01b038216620001c95760405162461bcd60e51b815260206004820152602160248201527f496e76616c69642043616d706169676e20436f6e7472616374206164647265736044820152607360f81b6064820152608401620000a2565b6001600160a01b038116620002215760405162461bcd60e51b815260206004820152601960248201527f496e76616c69642076616c696461746f722061646472657373000000000000006044820152606401620000a2565b6001600160a01b0385811660a052848116608052600380546001600160a01b0319908116868416179091556004805482168584161790556002805490911691831691821790556040515f907fcfac5dc75b8d9a7e074162f59d9adcd33da59f0fe8dfb21580db298fc0fdad0d908290a3505050505062000375565b600180546001600160a01b038381166001600160a01b0319831681179093556040519116919082907f8be0079c531659141344cd1fd0a4f28419497f9722a3daafe3b4186f6b6457e0905f90a35050565b80516001600160a01b038116811462000304575f80fd5b919050565b5f805f805f60a086880312156200031e575f80fd5b6200032986620002ed565b94506200033960208701620002ed565b93506200034960408701620002ed565b92506200035960608701620002ed565b91506200036960808701620002ed565b90509295509295909350565b60805160a05161205d620003d65f395f81816102c40152610abf01525f818161032c0152818161065501528181610a1a01528181610aee01528181610d3f01528181610df9015281816110ab015281816114bd015261169d015261205d5ff3fe608060405234801561000f575f80fd5b50600436106101d1575f3560e01c8063841b0ae4116100fe578063cb1c2b5c1161009e578063e7c67fe71161006e578063e7c67fe7146103dc578063ef5011ec14610400578063f1fdf46914610413578063f2fde38b14610426575f80fd5b8063cb1c2b5c1461039e578063d82d5c48146103ad578063db62877f146103c0578063e1f1c4a7146103d3575f80fd5b80638c7bc838116100d95780638c7bc838146103605780638da5cb5b1461036b5780638f1275111461037c578063c164dab81461038f575f80fd5b8063841b0ae4146103275780638456cb591461034e5780638aea3dc914610356575f80fd5b80633f4ba83a1161017457806368fb40911161014457806368fb4091146102e6578063715018a6146102f95780637e4cf1bf14610301578063811e539c14610314575f80fd5b80633f4ba83a14610291578063476343ee146102995780635c975abb146102a157806361d027b3146102bf575f80fd5b8063141961bc116101af578063141961bc14610210578063155482321461023d578063383f8970146102535780633a5381b514610266575f80fd5b8063024a909b146101d55780630962ef79146101ea5780631327d3d8146101fd575b5f80fd5b6101e86101e3366004611a76565b610439565b005b6101e86101f8366004611add565b61058c565b6101e861020b366004611af4565b610713565b61022361021e366004611add565b6107c2565b604051610234959493929190611b5d565b60405180910390f35b61024560c881565b604051908152602001610234565b6101e8610261366004611c3a565b610885565b600254610279906001600160a01b031681565b6040516001600160a01b039091168152602001610234565b6101e8610d0e565b6101e8610d20565b600154600160a01b900460ff165b6040519015158152602001610234565b6102797f000000000000000000000000000000000000000000000000000000000000000081565b6101e86102f4366004611c86565b610ec2565b6101e861118b565b6101e861030f366004611cc8565b61119c565b600454610279906001600160a01b031681565b6102797f000000000000000000000000000000000000000000000000000000000000000081565b6101e8611230565b6102456201518081565b6102456301e1338081565b6001546001600160a01b0316610279565b600354610279906001600160a01b031681565b61024567016345785d8a000081565b6102456706f05b59d3b2000081565b6102af6103bb366004611add565b61126c565b6101e86103ce366004611add565b611298565b61024561271081565b6103ef6103ea366004611add565b611353565b604051610234959493929190611ce8565b6101e861040e366004611c3a565b611415565b6101e8610421366004611cc8565b611584565b6101e8610434366004611af4565b611781565b6002546001600160a01b0316331461046c5760405162461bcd60e51b815260040161046390611d27565b60405180910390fd5b8281146104b35760405162461bcd60e51b8152602060048201526015602482015274082e4e4c2f240d8cadccee8d040dad2e6dac2e8c6d605b1b6044820152606401610463565b5f5b838110156105855760055f8686848181106104d2576104d2611d5e565b602090810292909201358352508101919091526040015f206004015460ff166105335760405162461bcd60e51b81526020600482015260136024820152724164207370616365206e6f742061637469766560681b6044820152606401610463565b82828281811061054557610545611d5e565b9050602002013560055f87878581811061056157610561611d5e565b602090810292909201358352508101919091526040015f20600301556001016104b5565b5050505050565b6105946117f7565b5f81815260056020526040902080546001600160a01b031633146105e65760405162461bcd60e51b81526020600482015260096024820152682737ba1037bbb732b960b91b6044820152606401610463565b5f81600301541161062f5760405162461bcd60e51b81526020600482015260136024820152724e6f207265776172647320746f20636c61696d60681b6044820152606401610463565b6003810180545f90915560405163a9059cbb60e01b8152336004820152602481018290527f00000000000000000000000000000000000000000000000000000000000000006001600160a01b03169063a9059cbb906044016020604051808303815f875af11580156106a3573d5f803e3d5ffd5b505050506040513d601f19601f820116820180604052508101906106c79190611d72565b6107055760405162461bcd60e51b815260206004820152600f60248201526e151c985b9cd9995c8819985a5b1959608a1b6044820152606401610463565b505061071060015f55565b50565b61071b61184e565b6001600160a01b0381166107715760405162461bcd60e51b815260206004820152601960248201527f496e76616c69642076616c696461746f722061646472657373000000000000006044820152606401610463565b600280546001600160a01b038381166001600160a01b0319831681179093556040519116919082907fcfac5dc75b8d9a7e074162f59d9adcd33da59f0fe8dfb21580db298fc0fdad0d905f90a35050565b60066020525f908152604090208054600182015460028301546003840180546001600160a01b039094169492939192916107fb90611d91565b80601f016020809104026020016040519081016040528092919081815260200182805461082790611d91565b80156108725780601f1061084957610100808354040283529160200191610872565b820191905f5260205f20905b81548152906001019060200180831161085557829003601f168201915b5050506004909301549192505060ff1685565b61088d6117f7565b6108956118a8565b620151806108a38482611ddd565b10156108e65760405162461bcd60e51b8152602060048201526012602482015271111d5c985d1a5bdb881d1bdbc81cda1bdc9d60721b6044820152606401610463565b6301e133806108f88462015180611ddd565b111561093a5760405162461bcd60e51b81526020600482015260116024820152704475726174696f6e20746f6f206c6f6e6760781b6044820152606401610463565b67016345785d8a000082101561098b5760405162461bcd60e51b81526020600482015260166024820152755072696f72697479207374616b6520746f6f206c6f7760501b6044820152606401610463565b5f8151116109ce5760405162461bcd60e51b815260206004820152601060248201526f115b5c1d1e4818590818dbdb9d195b9d60821b6044820152606401610463565b815f6127106109de60c884611ddd565b6109e89190611dfa565b90505f6109f58284611e19565b6040516323b872dd60e01b8152336004820152306024820152604481018290529091507f00000000000000000000000000000000000000000000000000000000000000006001600160a01b0316906323b872dd906064016020604051808303815f875af1158015610a68573d5f803e3d5ffd5b505050506040513d601f19601f82011682018060405250810190610a8c9190611d72565b610aa85760405162461bcd60e51b815260040161046390611e2c565b60405163a9059cbb60e01b81526001600160a01b037f000000000000000000000000000000000000000000000000000000000000000081166004830152602482018490527f0000000000000000000000000000000000000000000000000000000000000000169063a9059cbb906044016020604051808303815f875af1158015610b34573d5f803e3d5ffd5b505050506040513d601f19601f82011682018060405250810190610b589190611d72565b610b9a5760405162461bcd60e51b8152602060048201526013602482015272119959481d1c985b9cd9995c8819985a5b1959606a1b6044820152606401610463565b6004805460405163386c97a760e21b81525f926001600160a01b039092169163e1b25e9c91610bcd9133918a9101611e63565b6020604051808303815f875af1158015610be9573d5f803e3d5ffd5b505050506040513d601f19601f82011682018060405250810190610c0d9190611e8e565b90505f610c1d8862015180611ddd565b610c279042611e19565b6040805160a08101825233815260208082018481528284018c8152606084018c81526001608086018190525f8a8152600690955295909320845181546001600160a01b0319166001600160a01b039091161781559151948201949094559251600284015551929350916003820190610c9f9082611ee9565b50608091909101516004909101805460ff1916911515919091179055604051339083907f5b264b4df625865a71ee7a7cce8d0d67726b4c18bc854f912329ce77c924bd6590610cf39085908c908c90611fa9565b60405180910390a35050505050610d0960015f55565b505050565b610d1661184e565b610d1e6118f5565b565b610d2861184e565b6040516370a0823160e01b81523060048201525f907f00000000000000000000000000000000000000000000000000000000000000006001600160a01b0316906370a0823190602401602060405180830381865afa158015610d8c573d5f803e3d5ffd5b505050506040513d601f19601f82011682018060405250810190610db09190611e8e565b90505f8111610df75760405162461bcd60e51b81526020600482015260136024820152724e6f206665657320746f20776974686472617760681b6044820152606401610463565b7f00000000000000000000000000000000000000000000000000000000000000006001600160a01b031663a9059cbb610e386001546001600160a01b031690565b6040516001600160e01b031960e084901b1681526001600160a01b039091166004820152602481018490526044016020604051808303815f875af1158015610e82573d5f803e3d5ffd5b505050506040513d601f19601f82011682018060405250810190610ea69190611d72565b6107105760405162461bcd60e51b815260040161046390611e2c565b610eca6117f7565b610ed26118a8565b33610f115760405162461bcd60e51b815260206004820152600f60248201526e496e76616c6964206164647265737360881b6044820152606401610463565b5f825111610f565760405162461bcd60e51b8152602060048201526012602482015271456d707479206d657461646174612055524960701b6044820152606401610463565b6706f05b59d3b20000811015610f7e5760405162461bcd60e51b815260040161046390611fd0565b60035460405163956cce5f60e01b81525f916001600160a01b03169063956cce5f90610fb09033908790600401611e63565b6020604051808303815f875af1158015610fcc573d5f803e3d5ffd5b505050506040513d601f19601f82011682018060405250810190610ff09190611e8e565b6040805160a08101825233815260208082018681528284018881525f60608501819052600160808601819052878252600590945294909420835181546001600160a01b0319166001600160a01b0390911617815590519181019190915591519293509160028201906110629082611ee9565b50606082015160038201556080909101516004918201805460ff19169115159190911790556040516323b872dd60e01b81523391810191909152306024820152604481018390527f00000000000000000000000000000000000000000000000000000000000000006001600160a01b0316906323b872dd906064016020604051808303815f875af11580156110f9573d5f803e3d5ffd5b505050506040513d601f19601f8201168201806040525081019061111d9190611d72565b6111395760405162461bcd60e51b815260040161046390611e2c565b336001600160a01b0316817f72e774452be498d619a35b8dcb1d0e5f43a057eeab1ccd427480e0731c2be1f88486604051611175929190611ffc565b60405180910390a35061118760015f55565b5050565b61119361184e565b610d1e5f61194a565b6002546001600160a01b031633146111c65760405162461bcd60e51b815260040161046390611d27565b5f8281526005602052604090206004015460ff1661121c5760405162461bcd60e51b81526020600482015260136024820152724164207370616365206e6f742061637469766560681b6044820152606401610463565b5f9182526005602052604090912060030155565b61123861184e565b61124061199b565b60405133907f1fc1e771236d2e93bb9541cdcb4654ba0fd3fb615b48d829b7b365f039985126905f90a2565b5f8181526006602052604081206001810154421015806112915750600481015460ff16155b9392505050565b6002546001600160a01b031633146112c25760405162461bcd60e51b815260040161046390611d27565b5f818152600660205260409020600481015460ff166113195760405162461bcd60e51b815260206004820152601360248201527243616d706169676e206e6f742061637469766560681b6044820152606401610463565b60048101805460ff1916905560405182907f0d94c4ffddec49b3d74bc3ad57eff71b9adb8fed796a967e24712c651de3f63d905f90a25050565b60056020525f90815260409020805460018201546002830180546001600160a01b0390931693919261138490611d91565b80601f01602080910402602001604051908101604052809291908181526020018280546113b090611d91565b80156113fb5780601f106113d2576101008083540402835291602001916113fb565b820191905f5260205f20905b8154815290600101906020018083116113de57829003601f168201915b50505050600383015460049093015491929160ff16905085565b6002546001600160a01b0316331461143f5760405162461bcd60e51b815260040161046390611d27565b5f8381526005602052604090206001015482111561146f5760405162461bcd60e51b815260040161046390611fd0565b5f838152600560205260408120600101805484929061148f908490612014565b909155505060025460405163a9059cbb60e01b81526001600160a01b039182166004820152602481018490527f00000000000000000000000000000000000000000000000000000000000000009091169063a9059cbb906044016020604051808303815f875af1158015611505573d5f803e3d5ffd5b505050506040513d601f19601f820116820180604052508101906115299190611d72565b6115455760405162461bcd60e51b815260040161046390611e2c565b827f9f93f6642b6856eae7db76109ae510d584d159ab25815139ae8fe6a60020b6b28383604051611577929190611ffc565b60405180910390a2505050565b61158c6117f7565b5f82815260056020526040902080546001600160a01b031633146115de5760405162461bcd60e51b81526020600482015260096024820152682737ba1037bbb732b960b91b6044820152606401610463565b81816001015410156116025760405162461bcd60e51b815260040161046390611fd0565b6706f05b59d3b2000082826001015461161b9190612014565b10156116695760405162461bcd60e51b815260206004820152601b60248201527f4d757374206d61696e7461696e206d696e696d756d207374616b6500000000006044820152606401610463565b81816001015f82825461167c9190612014565b909155505060405163a9059cbb60e01b8152336004820152602481018390527f00000000000000000000000000000000000000000000000000000000000000006001600160a01b03169063a9059cbb906044016020604051808303815f875af11580156116eb573d5f803e3d5ffd5b505050506040513d601f19601f8201168201806040525081019061170f9190611d72565b61174d5760405162461bcd60e51b815260206004820152600f60248201526e151c985b9cd9995c8819985a5b1959608a1b6044820152606401610463565b604051828152339084907f459d5aef2c549903c1eeb1736f5728845d5ccf82537ddd5bf8035795eee8926390602001611175565b61178961184e565b6001600160a01b0381166117ee5760405162461bcd60e51b815260206004820152602660248201527f4f776e61626c653a206e6577206f776e657220697320746865207a65726f206160448201526564647265737360d01b6064820152608401610463565b6107108161194a565b60025f54036118485760405162461bcd60e51b815260206004820152601f60248201527f5265656e7472616e637947756172643a207265656e7472616e742063616c6c006044820152606401610463565b60025f55565b6001546001600160a01b03163314610d1e5760405162461bcd60e51b815260206004820181905260248201527f4f776e61626c653a2063616c6c6572206973206e6f7420746865206f776e65726044820152606401610463565b600154600160a01b900460ff1615610d1e5760405162461bcd60e51b815260206004820152601060248201526f14185d5cd8589b194e881c185d5cd95960821b6044820152606401610463565b6118fd6119de565b6001805460ff60a01b191690557f5db9ee0a495bf2e6ff9c91a7834c1ba4fdd244a5e8aa4e537bd38aeae4b073aa335b6040516001600160a01b03909116815260200160405180910390a1565b600180546001600160a01b038381166001600160a01b0319831681179093556040519116919082907f8be0079c531659141344cd1fd0a4f28419497f9722a3daafe3b4186f6b6457e0905f90a35050565b6119a36118a8565b6001805460ff60a01b1916600160a01b1790557f62e78cea01bee320cd4e420270b5ea74000d11b0c9f74754ebdbfc544b05a25861192d3390565b600154600160a01b900460ff16610d1e5760405162461bcd60e51b815260206004820152601460248201527314185d5cd8589b194e881b9bdd081c185d5cd95960621b6044820152606401610463565b5f8083601f840112611a3e575f80fd5b50813567ffffffffffffffff811115611a55575f80fd5b6020830191508360208260051b8501011115611a6f575f80fd5b9250929050565b5f805f8060408587031215611a89575f80fd5b843567ffffffffffffffff80821115611aa0575f80fd5b611aac88838901611a2e565b90965094506020870135915080821115611ac4575f80fd5b50611ad187828801611a2e565b95989497509550505050565b5f60208284031215611aed575f80fd5b5035919050565b5f60208284031215611b04575f80fd5b81356001600160a01b0381168114611291575f80fd5b5f81518084525f5b81811015611b3e57602081850181015186830182015201611b22565b505f602082860101526020601f19601f83011685010191505092915050565b60018060a01b038616815284602082015283604082015260a060608201525f611b8960a0830185611b1a565b905082151560808301529695505050505050565b634e487b7160e01b5f52604160045260245ffd5b5f82601f830112611bc0575f80fd5b813567ffffffffffffffff80821115611bdb57611bdb611b9d565b604051601f8301601f19908116603f01168101908282118183101715611c0357611c03611b9d565b81604052838152866020858801011115611c1b575f80fd5b836020870160208301375f602085830101528094505050505092915050565b5f805f60608486031215611c4c575f80fd5b8335925060208401359150604084013567ffffffffffffffff811115611c70575f80fd5b611c7c86828701611bb1565b9150509250925092565b5f8060408385031215611c97575f80fd5b823567ffffffffffffffff811115611cad575f80fd5b611cb985828601611bb1565b95602094909401359450505050565b5f8060408385031215611cd9575f80fd5b50508035926020909101359150565b60018060a01b038616815284602082015260a060408201525f611d0e60a0830186611b1a565b6060830194909452509015156080909101529392505050565b60208082526017908201527f4f6e6c792076616c696461746f722063616e2063616c6c000000000000000000604082015260600190565b634e487b7160e01b5f52603260045260245ffd5b5f60208284031215611d82575f80fd5b81518015158114611291575f80fd5b600181811c90821680611da557607f821691505b602082108103611dc357634e487b7160e01b5f52602260045260245ffd5b50919050565b634e487b7160e01b5f52601160045260245ffd5b8082028115828204841417611df457611df4611dc9565b92915050565b5f82611e1457634e487b7160e01b5f52601260045260245ffd5b500490565b80820180821115611df457611df4611dc9565b6020808252601a908201527f5761727020746f6b656e207472616e73666572206661696c6564000000000000604082015260600190565b6001600160a01b03831681526040602082018190525f90611e8690830184611b1a565b949350505050565b5f60208284031215611e9e575f80fd5b5051919050565b601f821115610d0957805f5260205f20601f840160051c81016020851015611eca5750805b601f840160051c820191505b81811015610585575f8155600101611ed6565b815167ffffffffffffffff811115611f0357611f03611b9d565b611f1781611f118454611d91565b84611ea5565b602080601f831160018114611f4a575f8415611f335750858301515b5f19600386901b1c1916600185901b178555611fa1565b5f85815260208120601f198616915b82811015611f7857888601518255948401946001909101908401611f59565b5085821015611f9557878501515f19600388901b60f8161c191681555b505060018460011b0185555b505050505050565b838152826020820152606060408201525f611fc76060830184611b1a565b95945050505050565b602080825260129082015271496e73756666696369656e74207374616b6560701b604082015260600190565b828152604060208201525f611e866040830184611b1a565b81810381811115611df457611df4611dc956fea2646970667358221220a66067428fe64de2e6cbb3384c76a28000e87b7695c7b20e154495256a5f09a064736f6c63430008180033",
  "linkReferences": {},
  "deployedLinkReferences": {}
}